{
  "contractName": "Evaluation",
  "abi": [
    {
      "anonymous": false,
      "inputs": [
        {
          "components": [
            {
              "internalType": "string",
              "name": "name",
              "type": "string"
            },
            {
              "internalType": "uint256",
              "name": "number",
              "type": "uint256"
            },
            {
              "internalType": "string",
              "name": "add",
              "type": "string"
            },
            {
              "internalType": "string",
              "name": "scheme_name",
              "type": "string"
            },
            {
              "internalType": "uint256",
              "name": "marks_scored",
              "type": "uint256"
            },
            {
              "internalType": "uint256",
              "name": "ward_number",
              "type": "uint256"
            },
            {
              "internalType": "uint256",
              "name": "house_number",
              "type": "uint256"
            }
          ],
          "indexed": false,
          "internalType": "struct Evaluation.Applicant[]",
          "name": "applicants",
          "type": "tuple[]"
        }
      ],
      "name": "ApplicantRetrieved",
      "type": "event"
    },
    {
      "anonymous": false,
      "inputs": [
        {
          "indexed": false,
          "internalType": "uint256[12]",
          "name": "marks",
          "type": "uint256[12]"
        },
        {
          "indexed": false,
          "internalType": "uint256",
          "name": "totalMarks",
          "type": "uint256"
        }
      ],
      "name": "MarksCalculated",
      "type": "event"
    },
    {
      "inputs": [
        {
          "internalType": "uint256",
          "name": "",
          "type": "uint256"
        }
      ],
      "name": "applicants",
      "outputs": [
        {
          "internalType": "string",
          "name": "name",
          "type": "string"
        },
        {
          "internalType": "uint256",
          "name": "number",
          "type": "uint256"
        },
        {
          "internalType": "string",
          "name": "add",
          "type": "string"
        },
        {
          "internalType": "string",
          "name": "scheme_name",
          "type": "string"
        },
        {
          "internalType": "uint256",
          "name": "marks_scored",
          "type": "uint256"
        },
        {
          "internalType": "uint256",
          "name": "ward_number",
          "type": "uint256"
        },
        {
          "internalType": "uint256",
          "name": "house_number",
          "type": "uint256"
        }
      ],
      "stateMutability": "view",
      "type": "function",
      "constant": true
    },
    {
      "inputs": [
        {
          "internalType": "uint256",
          "name": "",
          "type": "uint256"
        }
      ],
      "name": "marks",
      "outputs": [
        {
          "internalType": "uint256",
          "name": "",
          "type": "uint256"
        }
      ],
      "stateMutability": "view",
      "type": "function",
      "constant": true
    },
    {
      "inputs": [],
      "name": "totalMarks",
      "outputs": [
        {
          "internalType": "uint256",
          "name": "",
          "type": "uint256"
        }
      ],
      "stateMutability": "view",
      "type": "function",
      "constant": true
    },
    {
      "inputs": [
        {
          "components": [
            {
              "internalType": "string",
              "name": "name",
              "type": "string"
            },
            {
              "internalType": "uint256",
              "name": "number",
              "type": "uint256"
            },
            {
              "internalType": "string",
              "name": "add",
              "type": "string"
            },
            {
              "internalType": "string",
              "name": "scheme_name",
              "type": "string"
            },
            {
              "internalType": "uint256",
              "name": "marks_scored",
              "type": "uint256"
            },
            {
              "internalType": "uint256",
              "name": "ward_number",
              "type": "uint256"
            },
            {
              "internalType": "uint256",
              "name": "house_number",
              "type": "uint256"
            }
          ],
          "internalType": "struct Evaluation.Applicant[]",
          "name": "newApplicants",
          "type": "tuple[]"
        }
      ],
      "name": "addFinalApplicants",
      "outputs": [],
      "stateMutability": "nonpayable",
      "type": "function"
    },
    {
      "inputs": [],
      "name": "getApplicants",
      "outputs": [
        {
          "components": [
            {
              "internalType": "string",
              "name": "name",
              "type": "string"
            },
            {
              "internalType": "uint256",
              "name": "number",
              "type": "uint256"
            },
            {
              "internalType": "string",
              "name": "add",
              "type": "string"
            },
            {
              "internalType": "string",
              "name": "scheme_name",
              "type": "string"
            },
            {
              "internalType": "uint256",
              "name": "marks_scored",
              "type": "uint256"
            },
            {
              "internalType": "uint256",
              "name": "ward_number",
              "type": "uint256"
            },
            {
              "internalType": "uint256",
              "name": "house_number",
              "type": "uint256"
            }
          ],
          "internalType": "struct Evaluation.Applicant[]",
          "name": "",
          "type": "tuple[]"
        }
      ],
      "stateMutability": "nonpayable",
      "type": "function"
    },
    {
      "inputs": [],
      "name": "getApplicantsLength",
      "outputs": [
        {
          "internalType": "uint256",
          "name": "",
          "type": "uint256"
        }
      ],
      "stateMutability": "view",
      "type": "function",
      "constant": true
    },
    {
      "inputs": [
        {
          "internalType": "string",
          "name": "_name",
          "type": "string"
        },
        {
          "internalType": "uint256",
          "name": "_number",
          "type": "uint256"
        },
        {
          "internalType": "string",
          "name": "_add",
          "type": "string"
        },
        {
          "internalType": "string",
          "name": "_scheme_name",
          "type": "string"
        },
        {
          "internalType": "uint256",
          "name": "_ward_number",
          "type": "uint256"
        },
        {
          "internalType": "uint256",
          "name": "_house_number",
          "type": "uint256"
        },
        {
          "internalType": "uint256",
          "name": "_marks_scored",
          "type": "uint256"
        }
      ],
      "name": "addApplicant",
      "outputs": [],
      "stateMutability": "nonpayable",
      "type": "function"
    },
    {
      "inputs": [
        {
          "internalType": "string[12]",
          "name": "fields",
          "type": "string[12]"
        }
      ],
      "name": "calculateMarks",
      "outputs": [],
      "stateMutability": "nonpayable",
      "type": "function"
    },
    {
      "inputs": [],
      "name": "getMarks",
      "outputs": [
        {
          "internalType": "uint256[12]",
          "name": "",
          "type": "uint256[12]"
        },
        {
          "internalType": "uint256",
          "name": "",
          "type": "uint256"
        }
      ],
      "stateMutability": "view",
      "type": "function",
      "constant": true
    }
  ],
  "bytecode": "0x608060405234801561001057600080fd5b5061218a806100206000396000f3fe608060405234801561001057600080fd5b50600436106100935760003560e01c806366af77ca1161006657806366af77ca146101385780637bde790c14610156578063ad3704c514610172578063b780e50714610190578063d9f6119d146101af57610093565b80631f44f6e6146100985780632dd88e81146100c8578063455772d2146100e457806363de532314610102575b600080fd5b6100b260048036038101906100ad9190611234565b6101cb565b6040516100bf9190611270565b60405180910390f35b6100e260048036038101906100dd91906114a5565b6101e6565b005b6100ec6102b4565b6040516100f991906116f1565b60405180910390f35b61011c60048036038101906101179190611234565b610529565b60405161012f979695949392919061175d565b60405180910390f35b610140610713565b60405161014d9190611270565b60405180910390f35b610170600480360381019061016b91906117e1565b610719565b005b61017a610815565b6040516101879190611270565b60405180910390f35b610198610822565b6040516101a6929190611973565b60405180910390f35b6101c960048036038101906101c49190611b91565b610877565b005b600081600c81106101db57600080fd5b016000915090505481565b6000600c8190555060005b600c8110156102b05761021a8282600c81106102105761020f611bda565b5b6020020151610969565b600082600c811061022e5761022d611bda565b5b0181905550600081600c811061024757610246611bda565b5b0154600c600082825461025a9190611c38565b925050819055507f88a13954554daf4385ac0d1bc0a95403aae69b599bfa2d7b2e007c5311c3f1396000600c54604051610295929190611d52565b60405180910390a180806102a890611d7d565b9150506101f1565b5050565b60607f65c4b2fb9eb44ec6cda6ce48a76a71bbc2bf975278a8067b913e11396206d6c6600d6040516102e69190612044565b60405180910390a1600d805480602002602001604051908101604052809291908181526020016000905b8282101561052057838290600052602060002090600702016040518060e001604052908160008201805461034390611e14565b80601f016020809104026020016040519081016040528092919081815260200182805461036f90611e14565b80156103bc5780601f10610391576101008083540402835291602001916103bc565b820191906000526020600020905b81548152906001019060200180831161039f57829003601f168201915b50505050508152602001600182015481526020016002820180546103df90611e14565b80601f016020809104026020016040519081016040528092919081815260200182805461040b90611e14565b80156104585780601f1061042d57610100808354040283529160200191610458565b820191906000526020600020905b81548152906001019060200180831161043b57829003601f168201915b5050505050815260200160038201805461047190611e14565b80601f016020809104026020016040519081016040528092919081815260200182805461049d90611e14565b80156104ea5780601f106104bf576101008083540402835291602001916104ea565b820191906000526020600020905b8154815290600101906020018083116104cd57829003601f168201915b50505050508152602001600482015481526020016005820154815260200160068201548152505081526020019060010190610310565b50505050905090565b600d818154811061053957600080fd5b906000526020600020906007020160009150905080600001805461055c90611e14565b80601f016020809104026020016040519081016040528092919081815260200182805461058890611e14565b80156105d55780601f106105aa576101008083540402835291602001916105d5565b820191906000526020600020905b8154815290600101906020018083116105b857829003601f168201915b5050505050908060010154908060020180546105f090611e14565b80601f016020809104026020016040519081016040528092919081815260200182805461061c90611e14565b80156106695780601f1061063e57610100808354040283529160200191610669565b820191906000526020600020905b81548152906001019060200180831161064c57829003601f168201915b50505050509080600301805461067e90611e14565b80601f01602080910402602001604051908101604052809291908181526020018280546106aa90611e14565b80156106f75780601f106106cc576101008083540402835291602001916106f7565b820191906000526020600020905b8154815290600101906020018083116106da57829003601f168201915b5050505050908060040154908060050154908060060154905087565b600c5481565b600081905060006040518060e001604052808a8152602001898152602001888152602001878152602001838152602001868152602001858152509050600d819080600181540180825580915050600190039060005260206000209060070201600090919091909150600082015181600001908051906020019061079d929190611097565b506020820151816001015560408201518160020190805190602001906107c4929190611097565b5060608201518160030190805190602001906107e1929190611097565b506080820151816004015560a0820151816005015560c08201518160060155505061080a610a9b565b505050505050505050565b6000600d80549050905090565b61082a61111d565b600080600c5481600c806020026040519081016040528092919082600c8015610868576020028201915b815481526020019060010190808311610854575b50505050509150915091509091565b60005b815181101561095d57600d82828151811061089857610897611bda565b5b6020026020010151908060018154018082558091505060019003906000526020600020906007020160009091909190915060008201518160000190805190602001906108e5929190611097565b5060208201518160010155604082015181600201908051906020019061090c929190611097565b506060820151816003019080519060200190610929929190611097565b506080820151816004015560a0820151816005015560c082015181600601555050808061095590611d7d565b91505061087a565b50610966610a9b565b50565b60006109aa826040518060400160405280600381526020017f7965730000000000000000000000000000000000000000000000000000000000815250610ecb565b156109b85760149050610a96565b6109f7826040518060400160405280600381526020017f42504c0000000000000000000000000000000000000000000000000000000000815250610ecb565b15610a055760149050610a96565b610a44826040518060400160405280600681526020017f7075626c69630000000000000000000000000000000000000000000000000000815250610ecb565b15610a525760149050610a96565b610a5b82610f24565b15610a91576000610a6b83610fba565b905060008110158015610a8057506127108111155b15610a8f576014915050610a96565b505b600090505b919050565b60005b600d80549050811015610ec8576000600182610aba9190611c38565b90505b600d80549050811015610eb457600d8181548110610ade57610add611bda565b5b906000526020600020906007020160040154600d8381548110610b0457610b03611bda565b5b9060005260206000209060070201600401541015610ea1576000600d8381548110610b3257610b31611bda565b5b90600052602060002090600702016040518060e0016040529081600082018054610b5b90611e14565b80601f0160208091040260200160405190810160405280929190818152602001828054610b8790611e14565b8015610bd45780601f10610ba957610100808354040283529160200191610bd4565b820191906000526020600020905b815481529060010190602001808311610bb757829003601f168201915b5050505050815260200160018201548152602001600282018054610bf790611e14565b80601f0160208091040260200160405190810160405280929190818152602001828054610c2390611e14565b8015610c705780601f10610c4557610100808354040283529160200191610c70565b820191906000526020600020905b815481529060010190602001808311610c5357829003601f168201915b50505050508152602001600382018054610c8990611e14565b80601f0160208091040260200160405190810160405280929190818152602001828054610cb590611e14565b8015610d025780601f10610cd757610100808354040283529160200191610d02565b820191906000526020600020905b815481529060010190602001808311610ce557829003601f168201915b5050505050815260200160048201548152602001600582015481526020016006820154815250509050600d8281548110610d3f57610d3e611bda565b5b9060005260206000209060070201600d8481548110610d6157610d60611bda565b5b90600052602060002090600702016000820181600001908054610d8390611e14565b610d8e929190611140565b50600182015481600101556002820181600201908054610dad90611e14565b610db8929190611140565b506003820181600301908054610dcd90611e14565b610dd8929190611140565b5060048201548160040155600582015481600501556006820154816006015590505080600d8381548110610e0f57610e0e611bda565b5b90600052602060002090600702016000820151816000019080519060200190610e39929190611097565b50602082015181600101556040820151816002019080519060200190610e60929190611097565b506060820151816003019080519060200190610e7d929190611097565b506080820151816004015560a0820151816005015560c08201518160060155905050505b8080610eac90611d7d565b915050610abd565b508080610ec090611d7d565b915050610a9e565b50565b600081604051602001610ede91906120a2565b6040516020818303038152906040528051906020012083604051602001610f0591906120a2565b6040516020818303038152906040528051906020012014905092915050565b60008082905060005b8151811015610fae576030828281518110610f4b57610f4a611bda565b5b602001015160f81c60f81b60f81c60ff161080610f8b57506039828281518110610f7857610f77611bda565b5b602001015160f81c60f81b60f81c60ff16115b15610f9b57600092505050610fb5565b8080610fa690611d7d565b915050610f2d565b5060019150505b919050565b60008060009050600083905060005b815181101561108c576030828281518110610fe757610fe6611bda565b5b602001015160f81c60f81b60f81c60ff161015801561102a5750603982828151811061101657611015611bda565b5b602001015160f81c60f81b60f81c60ff1611155b1561107957603082828151811061104457611043611bda565b5b602001015160f81c60f81b60f81c61105c91906120c6565b60ff16600a8461106c91906120fa565b6110769190611c38565b92505b808061108490611d7d565b915050610fc9565b508192505050919050565b8280546110a390611e14565b90600052602060002090601f0160209004810192826110c5576000855561110c565b82601f106110de57805160ff191683800117855561110c565b8280016001018555821561110c579182015b8281111561110b5782518255916020019190600101906110f0565b5b50905061111991906111cd565b5090565b604051806101800160405280600c90602082028036833780820191505090505090565b82805461114c90611e14565b90600052602060002090601f01602090048101928261116e57600085556111bc565b82601f1061117f57805485556111bc565b828001600101855582156111bc57600052602060002091601f016020900482015b828111156111bb5782548255916001019190600101906111a0565b5b5090506111c991906111cd565b5090565b5b808211156111e65760008160009055506001016111ce565b5090565b6000604051905090565b600080fd5b600080fd5b6000819050919050565b611211816111fe565b811461121c57600080fd5b50565b60008135905061122e81611208565b92915050565b60006020828403121561124a576112496111f4565b5b60006112588482850161121f565b91505092915050565b61126a816111fe565b82525050565b60006020820190506112856000830184611261565b92915050565b600080fd5b6000601f19601f8301169050919050565b7f4e487b7100000000000000000000000000000000000000000000000000000000600052604160045260246000fd5b6112d982611290565b810181811067ffffffffffffffff821117156112f8576112f76112a1565b5b80604052505050565b600061130b6111ea565b905061131782826112d0565b919050565b600067ffffffffffffffff821115611337576113366112a1565b5b602082029050919050565b600080fd5b600080fd5b600067ffffffffffffffff821115611367576113666112a1565b5b61137082611290565b9050602081019050919050565b82818337600083830152505050565b600061139f61139a8461134c565b611301565b9050828152602081018484840111156113bb576113ba611347565b5b6113c684828561137d565b509392505050565b600082601f8301126113e3576113e261128b565b5b81356113f384826020860161138c565b91505092915050565b600061140f61140a8461131c565b611301565b9050806020840283018581111561142957611428611342565b5b835b8181101561147057803567ffffffffffffffff81111561144e5761144d61128b565b5b80860161145b89826113ce565b8552602085019450505060208101905061142b565b5050509392505050565b600082601f83011261148f5761148e61128b565b5b600c61149c8482856113fc565b91505092915050565b6000602082840312156114bb576114ba6111f4565b5b600082013567ffffffffffffffff8111156114d9576114d86111f9565b5b6114e58482850161147a565b91505092915050565b600081519050919050565b600082825260208201905092915050565b6000819050602082019050919050565b600081519050919050565b600082825260208201905092915050565b60005b83811015611554578082015181840152602081019050611539565b83811115611563576000848401525b50505050565b60006115748261151a565b61157e8185611525565b935061158e818560208601611536565b61159781611290565b840191505092915050565b6115ab816111fe565b82525050565b600060e08301600083015184820360008601526115ce8282611569565b91505060208301516115e360208601826115a2565b50604083015184820360408601526115fb8282611569565b915050606083015184820360608601526116158282611569565b915050608083015161162a60808601826115a2565b5060a083015161163d60a08601826115a2565b5060c083015161165060c08601826115a2565b508091505092915050565b600061166783836115b1565b905092915050565b6000602082019050919050565b6000611687826114ee565b61169181856114f9565b9350836020820285016116a38561150a565b8060005b858110156116df57848403895281516116c0858261165b565b94506116cb8361166f565b925060208a019950506001810190506116a7565b50829750879550505050505092915050565b6000602082019050818103600083015261170b818461167c565b905092915050565b600082825260208201905092915050565b600061172f8261151a565b6117398185611713565b9350611749818560208601611536565b61175281611290565b840191505092915050565b600060e0820190508181036000830152611777818a611724565b90506117866020830189611261565b81810360408301526117988188611724565b905081810360608301526117ac8187611724565b90506117bb6080830186611261565b6117c860a0830185611261565b6117d560c0830184611261565b98975050505050505050565b600080600080600080600060e0888a031215611800576117ff6111f4565b5b600088013567ffffffffffffffff81111561181e5761181d6111f9565b5b61182a8a828b016113ce565b975050602061183b8a828b0161121f565b965050604088013567ffffffffffffffff81111561185c5761185b6111f9565b5b6118688a828b016113ce565b955050606088013567ffffffffffffffff811115611889576118886111f9565b5b6118958a828b016113ce565b94505060806118a68a828b0161121f565b93505060a06118b78a828b0161121f565b92505060c06118c88a828b0161121f565b91505092959891949750929550565b6000600c9050919050565b600081905092915050565b6000819050919050565b600061190383836115a2565b60208301905092915050565b6000602082019050919050565b611925816118d7565b61192f81846118e2565b925061193a826118ed565b8060005b8381101561196b57815161195287826118f7565b965061195d8361190f565b92505060018101905061193e565b505050505050565b60006101a082019050611989600083018561191c565b611997610180830184611261565b9392505050565b600067ffffffffffffffff8211156119b9576119b86112a1565b5b602082029050602081019050919050565b600080fd5b600080fd5b600060e082840312156119ea576119e96119ca565b5b6119f460e0611301565b9050600082013567ffffffffffffffff811115611a1457611a136119cf565b5b611a20848285016113ce565b6000830152506020611a348482850161121f565b602083015250604082013567ffffffffffffffff811115611a5857611a576119cf565b5b611a64848285016113ce565b604083015250606082013567ffffffffffffffff811115611a8857611a876119cf565b5b611a94848285016113ce565b6060830152506080611aa88482850161121f565b60808301525060a0611abc8482850161121f565b60a08301525060c0611ad08482850161121f565b60c08301525092915050565b6000611aef611aea8461199e565b611301565b90508083825260208201905060208402830185811115611b1257611b11611342565b5b835b81811015611b5957803567ffffffffffffffff811115611b3757611b3661128b565b5b808601611b4489826119d4565b85526020850194505050602081019050611b14565b5050509392505050565b600082601f830112611b7857611b7761128b565b5b8135611b88848260208601611adc565b91505092915050565b600060208284031215611ba757611ba66111f4565b5b600082013567ffffffffffffffff811115611bc557611bc46111f9565b5b611bd184828501611b63565b91505092915050565b7f4e487b7100000000000000000000000000000000000000000000000000000000600052603260045260246000fd5b7f4e487b7100000000000000000000000000000000000000000000000000000000600052601160045260246000fd5b6000611c43826111fe565b9150611c4e836111fe565b9250827fffffffffffffffffffffffffffffffffffffffffffffffffffffffffffffffff03821115611c8357611c82611c09565b5b828201905092915050565b6000600c9050919050565b6000819050919050565b60008160001c9050919050565b6000819050919050565b6000611ccd611cc883611ca3565b611cb0565b9050919050565b6000611ce08254611cba565b9050919050565b6000600182019050919050565b611cfd81611c8e565b611d0781846118e2565b9250611d1282611c99565b8060005b83811015611d4a57611d2782611cd4565b611d3187826118f7565b9650611d3c83611ce7565b925050600181019050611d16565b505050505050565b60006101a082019050611d686000830185611cf4565b611d76610180830184611261565b9392505050565b6000611d88826111fe565b91507fffffffffffffffffffffffffffffffffffffffffffffffffffffffffffffffff8203611dba57611db9611c09565b5b600182019050919050565b600081549050919050565b60008190508160005260206000209050919050565b7f4e487b7100000000000000000000000000000000000000000000000000000000600052602260045260246000fd5b60006002820490506001821680611e2c57607f821691505b602082108103611e3f57611e3e611de5565b5b50919050565b60008190508160005260206000209050919050565b60008154611e6781611e14565b611e718186611525565b94506001821660008114611e8c5760018114611e9e57611ed1565b60ff1983168652602086019350611ed1565b611ea785611e45565b60005b83811015611ec957815481890152600182019150602081019050611eaa565b808801955050505b50505092915050565b600060e0830160008084018583036000870152611ef78382611e5a565b92505060018401549050611f0a81611cba565b611f1760208701826115a2565b50600284018583036040870152611f2e8382611e5a565b925050600384018583036060870152611f478382611e5a565b92505060048401549050611f5a81611cba565b611f6760808701826115a2565b5060058401549050611f7881611cba565b611f8560a08701826115a2565b5060068401549050611f9681611cba565b611fa360c08701826115a2565b50819250505092915050565b6000611fbb8383611eda565b905092915050565b6000600782019050919050565b6000611fdb82611dc5565b611fe581856114f9565b935083602082028501611ff785611dd0565b8060005b85811015612032578484038952816120138582611faf565b945061201e83611fc3565b925060208a01995050600181019050611ffb565b50829750879550505050505092915050565b6000602082019050818103600083015261205e8184611fd0565b905092915050565b600081905092915050565b600061207c8261151a565b6120868185612066565b9350612096818560208601611536565b80840191505092915050565b60006120ae8284612071565b915081905092915050565b600060ff82169050919050565b60006120d1826120b9565b91506120dc836120b9565b9250828210156120ef576120ee611c09565b5b828203905092915050565b6000612105826111fe565b9150612110836111fe565b9250817fffffffffffffffffffffffffffffffffffffffffffffffffffffffffffffffff048311821515161561214957612148611c09565b5b82820290509291505056fea2646970667358221220e21ca1ef71546091c134f5dde5ffea8c4494be4df85fd62fabbad25d65af33a264736f6c634300080d0033",
  "immutableReferences": {},
  "source": "// SPDX-License-Identifier: MIT\npragma solidity ^0.8.13;\n\ncontract Evaluation {\n    uint256[12] public marks; \n    uint256 public totalMarks; \n    event MarksCalculated(uint256[12] marks, uint256 totalMarks);  \n    event ApplicantRetrieved (Applicant[] applicants);\n\n    struct Applicant {\n        string name;\n        uint256 number; \n        string add;\n        string scheme_name; \n        uint256 marks_scored;\n        uint256 ward_number; \n        uint256 house_number; \n    }\n\n    Applicant[] public applicants;\n\n    function addFinalApplicants (Applicant[] memory newApplicants)public{\n        for(uint256 i=0;i<newApplicants.length;i++)\n        {\n            applicants.push(newApplicants[i]);\n        }\n        sortApplicants();\n    }\n\n    function getApplicants () public  returns (Applicant[] memory ){\n        emit ApplicantRetrieved(applicants);\n        return applicants;\n    }\n\n    function getApplicantsLength() public view returns (uint256) {\n        return applicants.length;\n    }\n\n     function addApplicant (string memory _name, uint256 _number, string memory _add, string memory _scheme_name, uint256 _ward_number, uint256 _house_number, uint256 _marks_scored) public {\n        uint256 applicant_total_marks = _marks_scored;\n        Applicant memory newApplicant = Applicant(_name, _number, _add,  _scheme_name, applicant_total_marks, _ward_number, _house_number);\n        applicants.push(newApplicant);\n        sortApplicants();\n    }  \n\n    function sortApplicants() internal {\n        for (uint256 i = 0; i < applicants.length; i++) {\n            for (uint256 j = i + 1; j < applicants.length; j++) {\n                if (applicants[i].marks_scored < applicants[j].marks_scored) {\n                    Applicant memory temp = applicants[i];\n                    applicants[i] = applicants[j];\n                    applicants[j] = temp;\n                }\n            }\n        }\n    }\n\n    function calculateMarks(string[12] memory fields) public {\n        totalMarks = 0;\n        for (uint256 i = 0; i < fields.length; i++) {\n            marks[i] = evaluateField(fields[i]); \n            totalMarks += marks[i];\n            emit MarksCalculated(marks, totalMarks);\n        }\n    }\n\n    function getMarks() public view returns (uint256[12] memory, uint256) {\n        return (marks, totalMarks);\n    }\n\n    function evaluateField(\n        string memory field\n    ) internal pure returns (uint256) {\n        if (compareStrings(field, \"yes\")) {\n            return 20; \n        } else if (compareStrings(field, \"BPL\")) {\n            return 20;\n        } else if (compareStrings(field, \"public\")) {\n            return 20;\n        } else if (isInteger(field)) {\n            uint256 value = parseInt(field);\n            if (value >= 0 && value <= 10000) {\n                return 20; \n            }\n        }\n        return 0;\n    }\n\n    function compareStrings(\n        string memory a,\n        string memory b\n    ) internal pure returns (bool) {\n        return (keccak256(abi.encodePacked((a))) ==\n            keccak256(abi.encodePacked((b))));\n    }\n\n    function isInteger(string memory value) internal pure returns (bool) {\n        bytes memory strBytes = bytes(value);\n        for (uint256 i = 0; i < strBytes.length; i++) {\n            if ((uint8(strBytes[i]) < 48) || (uint8(strBytes[i]) > 57)) {\n                return false;\n            }\n        }\n        return true;\n    }\n\n    function parseInt(string memory value) internal pure returns (uint256) {\n        uint256 result = 0;\n        bytes memory strBytes = bytes(value);\n        for (uint256 i = 0; i < strBytes.length; i++) {\n            if ((uint8(strBytes[i]) >= 48) && (uint8(strBytes[i]) <= 57)) {\n                result = result * 10 + (uint8(strBytes[i]) - 48);\n            }\n        }\n        return result;\n    }\n}\n\n",
  "sourcePath": "C:\\Users\\kevin\\OneDrive\\Desktop\\projects\\main-project\\grant-block\\contracts\\Evaluation.sol",
  "compiler": {
    "name": "solc",
    "version": "0.8.13+commit.abaa5c0e.Emscripten.clang"
  },
  "schemaVersion": "3.4.16",
  "updatedAt": "2024-04-19T08:22:36.070Z",
  "networkType": "ethereum",
  "devdoc": {
    "kind": "dev",
    "methods": {},
    "version": 1
  },
  "userdoc": {
    "kind": "user",
    "methods": {},
    "version": 1
  }
}