{
  "contractName": "Evaluation",
  "abi": [
    {
      "inputs": [
        {
          "internalType": "string[12]",
          "name": "fields",
          "type": "string[12]"
        }
      ],
      "name": "calculateMarks",
      "outputs": [
        {
          "internalType": "uint256[12]",
          "name": "",
          "type": "uint256[12]"
        }
      ],
      "stateMutability": "nonpayable",
      "type": "function"
    }
  ],
  "bytecode": "0x608060405234801561001057600080fd5b50610712806100206000396000f3fe608060405234801561001057600080fd5b506004361061002b5760003560e01c80632dd88e8114610030575b600080fd5b61004a6004803603810190610045919061048b565b610060565b6040516100579190610589565b60405180910390f35b6100686101dd565b6100706101dd565b60005b600c811015610112576100d28482600c8110610092576100916105a5565b5b60200201516040518060400160405280600381526020017f7965730000000000000000000000000000000000000000000000000000000000815250610184565b6100dd5760006100e0565b600c5b60ff168282600c81106100f6576100f56105a5565b5b602002018181525050808061010a90610603565b915050610073565b506040518060200160405280828152506000803373ffffffffffffffffffffffffffffffffffffffff1673ffffffffffffffffffffffffffffffffffffffff16815260200190815260200160002060008201518160000190600c610177929190610200565b5090505080915050919050565b60008160405160200161019791906106c5565b60405160208183030381529060405280519060200120836040516020016101be91906106c5565b6040516020818303038152906040528051906020012014905092915050565b604051806101800160405280600c90602082028036833780820191505090505090565b82600c810192821561022f579160200282015b8281111561022e578251825591602001919060010190610213565b5b50905061023c9190610240565b5090565b5b80821115610259576000816000905550600101610241565b5090565b6000604051905090565b600080fd5b600080fd5b600080fd5b6000601f19601f8301169050919050565b7f4e487b7100000000000000000000000000000000000000000000000000000000600052604160045260246000fd5b6102bf82610276565b810181811067ffffffffffffffff821117156102de576102dd610287565b5b80604052505050565b60006102f161025d565b90506102fd82826102b6565b919050565b600067ffffffffffffffff82111561031d5761031c610287565b5b602082029050919050565b600080fd5b600080fd5b600067ffffffffffffffff82111561034d5761034c610287565b5b61035682610276565b9050602081019050919050565b82818337600083830152505050565b600061038561038084610332565b6102e7565b9050828152602081018484840111156103a1576103a061032d565b5b6103ac848285610363565b509392505050565b600082601f8301126103c9576103c8610271565b5b81356103d9848260208601610372565b91505092915050565b60006103f56103f084610302565b6102e7565b9050806020840283018581111561040f5761040e610328565b5b835b8181101561045657803567ffffffffffffffff81111561043457610433610271565b5b80860161044189826103b4565b85526020850194505050602081019050610411565b5050509392505050565b600082601f83011261047557610474610271565b5b600c6104828482856103e2565b91505092915050565b6000602082840312156104a1576104a0610267565b5b600082013567ffffffffffffffff8111156104bf576104be61026c565b5b6104cb84828501610460565b91505092915050565b6000600c9050919050565b600081905092915050565b6000819050919050565b6000819050919050565b610507816104f4565b82525050565b600061051983836104fe565b60208301905092915050565b6000602082019050919050565b61053b816104d4565b61054581846104df565b9250610550826104ea565b8060005b83811015610581578151610568878261050d565b965061057383610525565b925050600181019050610554565b505050505050565b60006101808201905061059f6000830184610532565b92915050565b7f4e487b7100000000000000000000000000000000000000000000000000000000600052603260045260246000fd5b7f4e487b7100000000000000000000000000000000000000000000000000000000600052601160045260246000fd5b600061060e826104f4565b91507fffffffffffffffffffffffffffffffffffffffffffffffffffffffffffffffff82036106405761063f6105d4565b5b600182019050919050565b600081519050919050565b600081905092915050565b60005b8381101561067f578082015181840152602081019050610664565b8381111561068e576000848401525b50505050565b600061069f8261064b565b6106a98185610656565b93506106b9818560208601610661565b80840191505092915050565b60006106d18284610694565b91508190509291505056fea26469706673582212208202e160e7484bd6b5e3218e1caa5282fa61734f57c16e134e38603a9030ac4464736f6c634300080d0033",
  "immutableReferences": {},
  "source": "// SPDX-License-Identifier:MIT\r\npragma solidity ^0.8.13;\r\n\r\ncontract Evaluation {\r\n    struct Applicant {\r\n        uint256[12] marks; // Array to store marks for each field\r\n    }\r\n\r\n    mapping(address => Applicant) private applicantMapping;\r\n\r\n    function calculateMarks(string[12] memory fields) public returns (uint256[12] memory) {\r\n        uint256[12] memory marks; // Array to store marks for the current evaluation\r\n\r\n        for (uint256 i = 0; i < fields.length; i++) {\r\n            marks[i] = compareStrings(fields[i], \"yes\") ? 12 : 0;\r\n        }\r\n\r\n        applicantMapping[msg.sender] = Applicant(marks); // Store marks for the sender\r\n\r\n        return marks; // Return the marks array\r\n    }\r\n\r\n    // Function to compare two strings\r\n    function compareStrings(string memory a, string memory b) internal pure returns (bool) {\r\n        return (keccak256(abi.encodePacked((a))) == keccak256(abi.encodePacked((b))));\r\n    }\r\n}\r\n",
  "sourcePath": "C:\\Users\\kevin\\OneDrive\\Desktop\\projects\\main-project\\grant-block\\contracts\\Evaluation.sol",
  "compiler": {
    "name": "solc",
    "version": "0.8.13+commit.abaa5c0e.Emscripten.clang"
  },
  "schemaVersion": "3.4.16",
  "updatedAt": "2024-03-09T06:30:49.138Z",
  "networkType": "ethereum",
  "devdoc": {
    "kind": "dev",
    "methods": {},
    "version": 1
  },
  "userdoc": {
    "kind": "user",
    "methods": {},
    "version": 1
  }
}