{
  "contractName": "Evaluation",
  "abi": [
    {
      "anonymous": false,
      "inputs": [
        {
          "components": [
            {
              "internalType": "string",
              "name": "name",
              "type": "string"
            },
            {
              "internalType": "uint256",
              "name": "number",
              "type": "uint256"
            },
            {
              "internalType": "string",
              "name": "add",
              "type": "string"
            },
            {
              "internalType": "string",
              "name": "scheme_name",
              "type": "string"
            },
            {
              "internalType": "uint256",
              "name": "marks_scored",
              "type": "uint256"
            },
            {
              "internalType": "uint256",
              "name": "ward_number",
              "type": "uint256"
            },
            {
              "internalType": "uint256",
              "name": "house_number",
              "type": "uint256"
            }
          ],
          "indexed": false,
          "internalType": "struct Evaluation.Applicant[]",
          "name": "applicants",
          "type": "tuple[]"
        }
      ],
      "name": "ApplicantRetrieved",
      "type": "event"
    },
    {
      "anonymous": false,
      "inputs": [
        {
          "indexed": false,
          "internalType": "uint256[12]",
          "name": "marks",
          "type": "uint256[12]"
        },
        {
          "indexed": false,
          "internalType": "uint256",
          "name": "totalMarks",
          "type": "uint256"
        }
      ],
      "name": "MarksCalculated",
      "type": "event"
    },
    {
      "inputs": [
        {
          "internalType": "uint256",
          "name": "",
          "type": "uint256"
        }
      ],
      "name": "applicants",
      "outputs": [
        {
          "internalType": "string",
          "name": "name",
          "type": "string"
        },
        {
          "internalType": "uint256",
          "name": "number",
          "type": "uint256"
        },
        {
          "internalType": "string",
          "name": "add",
          "type": "string"
        },
        {
          "internalType": "string",
          "name": "scheme_name",
          "type": "string"
        },
        {
          "internalType": "uint256",
          "name": "marks_scored",
          "type": "uint256"
        },
        {
          "internalType": "uint256",
          "name": "ward_number",
          "type": "uint256"
        },
        {
          "internalType": "uint256",
          "name": "house_number",
          "type": "uint256"
        }
      ],
      "stateMutability": "view",
      "type": "function",
      "constant": true
    },
    {
      "inputs": [
        {
          "internalType": "uint256",
          "name": "",
          "type": "uint256"
        }
      ],
      "name": "marks",
      "outputs": [
        {
          "internalType": "uint256",
          "name": "",
          "type": "uint256"
        }
      ],
      "stateMutability": "view",
      "type": "function",
      "constant": true
    },
    {
      "inputs": [],
      "name": "totalMarks",
      "outputs": [
        {
          "internalType": "uint256",
          "name": "",
          "type": "uint256"
        }
      ],
      "stateMutability": "view",
      "type": "function",
      "constant": true
    },
    {
      "inputs": [],
      "name": "getApplicants",
      "outputs": [
        {
          "components": [
            {
              "internalType": "string",
              "name": "name",
              "type": "string"
            },
            {
              "internalType": "uint256",
              "name": "number",
              "type": "uint256"
            },
            {
              "internalType": "string",
              "name": "add",
              "type": "string"
            },
            {
              "internalType": "string",
              "name": "scheme_name",
              "type": "string"
            },
            {
              "internalType": "uint256",
              "name": "marks_scored",
              "type": "uint256"
            },
            {
              "internalType": "uint256",
              "name": "ward_number",
              "type": "uint256"
            },
            {
              "internalType": "uint256",
              "name": "house_number",
              "type": "uint256"
            }
          ],
          "internalType": "struct Evaluation.Applicant[]",
          "name": "",
          "type": "tuple[]"
        }
      ],
      "stateMutability": "nonpayable",
      "type": "function"
    },
    {
      "inputs": [],
      "name": "getApplicantsLength",
      "outputs": [
        {
          "internalType": "uint256",
          "name": "",
          "type": "uint256"
        }
      ],
      "stateMutability": "view",
      "type": "function",
      "constant": true
    },
    {
      "inputs": [
        {
          "internalType": "string",
          "name": "_name",
          "type": "string"
        },
        {
          "internalType": "uint256",
          "name": "_number",
          "type": "uint256"
        },
        {
          "internalType": "string",
          "name": "_add",
          "type": "string"
        },
        {
          "internalType": "string",
          "name": "_scheme_name",
          "type": "string"
        },
        {
          "internalType": "uint256",
          "name": "_ward_number",
          "type": "uint256"
        },
        {
          "internalType": "uint256",
          "name": "_house_number",
          "type": "uint256"
        },
        {
          "internalType": "uint256",
          "name": "_marks_scored",
          "type": "uint256"
        }
      ],
      "name": "addApplicant",
      "outputs": [],
      "stateMutability": "nonpayable",
      "type": "function"
    },
    {
      "inputs": [
        {
          "internalType": "string[12]",
          "name": "fields",
          "type": "string[12]"
        }
      ],
      "name": "calculateMarks",
      "outputs": [],
      "stateMutability": "nonpayable",
      "type": "function"
    },
    {
      "inputs": [],
      "name": "getMarks",
      "outputs": [
        {
          "internalType": "uint256[12]",
          "name": "",
          "type": "uint256[12]"
        },
        {
          "internalType": "uint256",
          "name": "",
          "type": "uint256"
        }
      ],
      "stateMutability": "view",
      "type": "function",
      "constant": true
    }
  ],
  "bytecode": "0x608060405234801561001057600080fd5b50611e35806100206000396000f3fe608060405234801561001057600080fd5b50600436106100885760003560e01c806366af77ca1161005b57806366af77ca1461012d5780637bde790c1461014b578063ad3704c514610167578063b780e5071461018557610088565b80631f44f6e61461008d5780632dd88e81146100bd578063455772d2146100d957806363de5323146100f7575b600080fd5b6100a760048036038101906100a2919061111b565b6101a4565b6040516100b49190611157565b60405180910390f35b6100d760048036038101906100d2919061138c565b6101bf565b005b6100e161028d565b6040516100ee91906115d8565b60405180910390f35b610111600480360381019061010c919061111b565b610502565b6040516101249796959493929190611644565b60405180910390f35b6101356106ec565b6040516101429190611157565b60405180910390f35b610165600480360381019061016091906116c8565b6106f2565b005b61016f6107ee565b60405161017c9190611157565b60405180910390f35b61018d6107fb565b60405161019b92919061185a565b60405180910390f35b600081600c81106101b457600080fd5b016000915090505481565b6000600c8190555060005b600c811015610289576101f38282600c81106101e9576101e8611885565b5b6020020151610850565b600082600c811061020757610206611885565b5b0181905550600081600c81106102205761021f611885565b5b0154600c600082825461023391906118e3565b925050819055507f88a13954554daf4385ac0d1bc0a95403aae69b599bfa2d7b2e007c5311c3f1396000600c5460405161026e9291906119fd565b60405180910390a1808061028190611a28565b9150506101ca565b5050565b60607f65c4b2fb9eb44ec6cda6ce48a76a71bbc2bf975278a8067b913e11396206d6c6600d6040516102bf9190611cef565b60405180910390a1600d805480602002602001604051908101604052809291908181526020016000905b828210156104f957838290600052602060002090600702016040518060e001604052908160008201805461031c90611abf565b80601f016020809104026020016040519081016040528092919081815260200182805461034890611abf565b80156103955780601f1061036a57610100808354040283529160200191610395565b820191906000526020600020905b81548152906001019060200180831161037857829003601f168201915b50505050508152602001600182015481526020016002820180546103b890611abf565b80601f01602080910402602001604051908101604052809291908181526020018280546103e490611abf565b80156104315780601f1061040657610100808354040283529160200191610431565b820191906000526020600020905b81548152906001019060200180831161041457829003601f168201915b5050505050815260200160038201805461044a90611abf565b80601f016020809104026020016040519081016040528092919081815260200182805461047690611abf565b80156104c35780601f10610498576101008083540402835291602001916104c3565b820191906000526020600020905b8154815290600101906020018083116104a657829003601f168201915b505050505081526020016004820154815260200160058201548152602001600682015481525050815260200190600101906102e9565b50505050905090565b600d818154811061051257600080fd5b906000526020600020906007020160009150905080600001805461053590611abf565b80601f016020809104026020016040519081016040528092919081815260200182805461056190611abf565b80156105ae5780601f10610583576101008083540402835291602001916105ae565b820191906000526020600020905b81548152906001019060200180831161059157829003601f168201915b5050505050908060010154908060020180546105c990611abf565b80601f01602080910402602001604051908101604052809291908181526020018280546105f590611abf565b80156106425780601f1061061757610100808354040283529160200191610642565b820191906000526020600020905b81548152906001019060200180831161062557829003601f168201915b50505050509080600301805461065790611abf565b80601f016020809104026020016040519081016040528092919081815260200182805461068390611abf565b80156106d05780601f106106a5576101008083540402835291602001916106d0565b820191906000526020600020905b8154815290600101906020018083116106b357829003601f168201915b5050505050908060040154908060050154908060060154905087565b600c5481565b600081905060006040518060e001604052808a8152602001898152602001888152602001878152602001838152602001868152602001858152509050600d8190806001815401808255809150506001900390600052602060002090600702016000909190919091506000820151816000019080519060200190610776929190610f7e565b5060208201518160010155604082015181600201908051906020019061079d929190610f7e565b5060608201518160030190805190602001906107ba929190610f7e565b506080820151816004015560a0820151816005015560c0820151816006015550506107e3610982565b505050505050505050565b6000600d80549050905090565b610803611004565b600080600c5481600c806020026040519081016040528092919082600c8015610841576020028201915b81548152602001906001019080831161082d575b50505050509150915091509091565b6000610891826040518060400160405280600381526020017f7965730000000000000000000000000000000000000000000000000000000000815250610db2565b1561089f576014905061097d565b6108de826040518060400160405280600381526020017f42504c0000000000000000000000000000000000000000000000000000000000815250610db2565b156108ec576014905061097d565b61092b826040518060400160405280600681526020017f7075626c69630000000000000000000000000000000000000000000000000000815250610db2565b15610939576014905061097d565b61094282610e0b565b1561097857600061095283610ea1565b90506000811015801561096757506127108111155b1561097657601491505061097d565b505b600090505b919050565b60005b600d80549050811015610daf5760006001826109a191906118e3565b90505b600d80549050811015610d9b57600d81815481106109c5576109c4611885565b5b906000526020600020906007020160040154600d83815481106109eb576109ea611885565b5b9060005260206000209060070201600401541015610d88576000600d8381548110610a1957610a18611885565b5b90600052602060002090600702016040518060e0016040529081600082018054610a4290611abf565b80601f0160208091040260200160405190810160405280929190818152602001828054610a6e90611abf565b8015610abb5780601f10610a9057610100808354040283529160200191610abb565b820191906000526020600020905b815481529060010190602001808311610a9e57829003601f168201915b5050505050815260200160018201548152602001600282018054610ade90611abf565b80601f0160208091040260200160405190810160405280929190818152602001828054610b0a90611abf565b8015610b575780601f10610b2c57610100808354040283529160200191610b57565b820191906000526020600020905b815481529060010190602001808311610b3a57829003601f168201915b50505050508152602001600382018054610b7090611abf565b80601f0160208091040260200160405190810160405280929190818152602001828054610b9c90611abf565b8015610be95780601f10610bbe57610100808354040283529160200191610be9565b820191906000526020600020905b815481529060010190602001808311610bcc57829003601f168201915b5050505050815260200160048201548152602001600582015481526020016006820154815250509050600d8281548110610c2657610c25611885565b5b9060005260206000209060070201600d8481548110610c4857610c47611885565b5b90600052602060002090600702016000820181600001908054610c6a90611abf565b610c75929190611027565b50600182015481600101556002820181600201908054610c9490611abf565b610c9f929190611027565b506003820181600301908054610cb490611abf565b610cbf929190611027565b5060048201548160040155600582015481600501556006820154816006015590505080600d8381548110610cf657610cf5611885565b5b90600052602060002090600702016000820151816000019080519060200190610d20929190610f7e565b50602082015181600101556040820151816002019080519060200190610d47929190610f7e565b506060820151816003019080519060200190610d64929190610f7e565b506080820151816004015560a0820151816005015560c08201518160060155905050505b8080610d9390611a28565b9150506109a4565b508080610da790611a28565b915050610985565b50565b600081604051602001610dc59190611d4d565b6040516020818303038152906040528051906020012083604051602001610dec9190611d4d565b6040516020818303038152906040528051906020012014905092915050565b60008082905060005b8151811015610e95576030828281518110610e3257610e31611885565b5b602001015160f81c60f81b60f81c60ff161080610e7257506039828281518110610e5f57610e5e611885565b5b602001015160f81c60f81b60f81c60ff16115b15610e8257600092505050610e9c565b8080610e8d90611a28565b915050610e14565b5060019150505b919050565b60008060009050600083905060005b8151811015610f73576030828281518110610ece57610ecd611885565b5b602001015160f81c60f81b60f81c60ff1610158015610f1157506039828281518110610efd57610efc611885565b5b602001015160f81c60f81b60f81c60ff1611155b15610f60576030828281518110610f2b57610f2a611885565b5b602001015160f81c60f81b60f81c610f439190611d71565b60ff16600a84610f539190611da5565b610f5d91906118e3565b92505b8080610f6b90611a28565b915050610eb0565b508192505050919050565b828054610f8a90611abf565b90600052602060002090601f016020900481019282610fac5760008555610ff3565b82601f10610fc557805160ff1916838001178555610ff3565b82800160010185558215610ff3579182015b82811115610ff2578251825591602001919060010190610fd7565b5b50905061100091906110b4565b5090565b604051806101800160405280600c90602082028036833780820191505090505090565b82805461103390611abf565b90600052602060002090601f01602090048101928261105557600085556110a3565b82601f1061106657805485556110a3565b828001600101855582156110a357600052602060002091601f016020900482015b828111156110a2578254825591600101919060010190611087565b5b5090506110b091906110b4565b5090565b5b808211156110cd5760008160009055506001016110b5565b5090565b6000604051905090565b600080fd5b600080fd5b6000819050919050565b6110f8816110e5565b811461110357600080fd5b50565b600081359050611115816110ef565b92915050565b600060208284031215611131576111306110db565b5b600061113f84828501611106565b91505092915050565b611151816110e5565b82525050565b600060208201905061116c6000830184611148565b92915050565b600080fd5b6000601f19601f8301169050919050565b7f4e487b7100000000000000000000000000000000000000000000000000000000600052604160045260246000fd5b6111c082611177565b810181811067ffffffffffffffff821117156111df576111de611188565b5b80604052505050565b60006111f26110d1565b90506111fe82826111b7565b919050565b600067ffffffffffffffff82111561121e5761121d611188565b5b602082029050919050565b600080fd5b600080fd5b600067ffffffffffffffff82111561124e5761124d611188565b5b61125782611177565b9050602081019050919050565b82818337600083830152505050565b600061128661128184611233565b6111e8565b9050828152602081018484840111156112a2576112a161122e565b5b6112ad848285611264565b509392505050565b600082601f8301126112ca576112c9611172565b5b81356112da848260208601611273565b91505092915050565b60006112f66112f184611203565b6111e8565b905080602084028301858111156113105761130f611229565b5b835b8181101561135757803567ffffffffffffffff81111561133557611334611172565b5b80860161134289826112b5565b85526020850194505050602081019050611312565b5050509392505050565b600082601f83011261137657611375611172565b5b600c6113838482856112e3565b91505092915050565b6000602082840312156113a2576113a16110db565b5b600082013567ffffffffffffffff8111156113c0576113bf6110e0565b5b6113cc84828501611361565b91505092915050565b600081519050919050565b600082825260208201905092915050565b6000819050602082019050919050565b600081519050919050565b600082825260208201905092915050565b60005b8381101561143b578082015181840152602081019050611420565b8381111561144a576000848401525b50505050565b600061145b82611401565b611465818561140c565b935061147581856020860161141d565b61147e81611177565b840191505092915050565b611492816110e5565b82525050565b600060e08301600083015184820360008601526114b58282611450565b91505060208301516114ca6020860182611489565b50604083015184820360408601526114e28282611450565b915050606083015184820360608601526114fc8282611450565b91505060808301516115116080860182611489565b5060a083015161152460a0860182611489565b5060c083015161153760c0860182611489565b508091505092915050565b600061154e8383611498565b905092915050565b6000602082019050919050565b600061156e826113d5565b61157881856113e0565b93508360208202850161158a856113f1565b8060005b858110156115c657848403895281516115a78582611542565b94506115b283611556565b925060208a0199505060018101905061158e565b50829750879550505050505092915050565b600060208201905081810360008301526115f28184611563565b905092915050565b600082825260208201905092915050565b600061161682611401565b61162081856115fa565b935061163081856020860161141d565b61163981611177565b840191505092915050565b600060e082019050818103600083015261165e818a61160b565b905061166d6020830189611148565b818103604083015261167f818861160b565b90508181036060830152611693818761160b565b90506116a26080830186611148565b6116af60a0830185611148565b6116bc60c0830184611148565b98975050505050505050565b600080600080600080600060e0888a0312156116e7576116e66110db565b5b600088013567ffffffffffffffff811115611705576117046110e0565b5b6117118a828b016112b5565b97505060206117228a828b01611106565b965050604088013567ffffffffffffffff811115611743576117426110e0565b5b61174f8a828b016112b5565b955050606088013567ffffffffffffffff8111156117705761176f6110e0565b5b61177c8a828b016112b5565b945050608061178d8a828b01611106565b93505060a061179e8a828b01611106565b92505060c06117af8a828b01611106565b91505092959891949750929550565b6000600c9050919050565b600081905092915050565b6000819050919050565b60006117ea8383611489565b60208301905092915050565b6000602082019050919050565b61180c816117be565b61181681846117c9565b9250611821826117d4565b8060005b8381101561185257815161183987826117de565b9650611844836117f6565b925050600181019050611825565b505050505050565b60006101a0820190506118706000830185611803565b61187e610180830184611148565b9392505050565b7f4e487b7100000000000000000000000000000000000000000000000000000000600052603260045260246000fd5b7f4e487b7100000000000000000000000000000000000000000000000000000000600052601160045260246000fd5b60006118ee826110e5565b91506118f9836110e5565b9250827fffffffffffffffffffffffffffffffffffffffffffffffffffffffffffffffff0382111561192e5761192d6118b4565b5b828201905092915050565b6000600c9050919050565b6000819050919050565b60008160001c9050919050565b6000819050919050565b60006119786119738361194e565b61195b565b9050919050565b600061198b8254611965565b9050919050565b6000600182019050919050565b6119a881611939565b6119b281846117c9565b92506119bd82611944565b8060005b838110156119f5576119d28261197f565b6119dc87826117de565b96506119e783611992565b9250506001810190506119c1565b505050505050565b60006101a082019050611a13600083018561199f565b611a21610180830184611148565b9392505050565b6000611a33826110e5565b91507fffffffffffffffffffffffffffffffffffffffffffffffffffffffffffffffff8203611a6557611a646118b4565b5b600182019050919050565b600081549050919050565b60008190508160005260206000209050919050565b7f4e487b7100000000000000000000000000000000000000000000000000000000600052602260045260246000fd5b60006002820490506001821680611ad757607f821691505b602082108103611aea57611ae9611a90565b5b50919050565b60008190508160005260206000209050919050565b60008154611b1281611abf565b611b1c818661140c565b94506001821660008114611b375760018114611b4957611b7c565b60ff1983168652602086019350611b7c565b611b5285611af0565b60005b83811015611b7457815481890152600182019150602081019050611b55565b808801955050505b50505092915050565b600060e0830160008084018583036000870152611ba28382611b05565b92505060018401549050611bb581611965565b611bc26020870182611489565b50600284018583036040870152611bd98382611b05565b925050600384018583036060870152611bf28382611b05565b92505060048401549050611c0581611965565b611c126080870182611489565b5060058401549050611c2381611965565b611c3060a0870182611489565b5060068401549050611c4181611965565b611c4e60c0870182611489565b50819250505092915050565b6000611c668383611b85565b905092915050565b6000600782019050919050565b6000611c8682611a70565b611c9081856113e0565b935083602082028501611ca285611a7b565b8060005b85811015611cdd57848403895281611cbe8582611c5a565b9450611cc983611c6e565b925060208a01995050600181019050611ca6565b50829750879550505050505092915050565b60006020820190508181036000830152611d098184611c7b565b905092915050565b600081905092915050565b6000611d2782611401565b611d318185611d11565b9350611d4181856020860161141d565b80840191505092915050565b6000611d598284611d1c565b915081905092915050565b600060ff82169050919050565b6000611d7c82611d64565b9150611d8783611d64565b925082821015611d9a57611d996118b4565b5b828203905092915050565b6000611db0826110e5565b9150611dbb836110e5565b9250817fffffffffffffffffffffffffffffffffffffffffffffffffffffffffffffffff0483118215151615611df457611df36118b4565b5b82820290509291505056fea2646970667358221220a36042b9c1c160c8faef2e58c5f6425b926c499c1f6f8e78d2cd5d88fb741dc164736f6c634300080d0033",
  "immutableReferences": {},
  "source": "// SPDX-License-Identifier: MIT\npragma solidity ^0.8.13;\n\ncontract Evaluation {\n    uint256[12] public marks; \n    uint256 public totalMarks; \n    event MarksCalculated(uint256[12] marks, uint256 totalMarks);  \n    event ApplicantRetrieved (Applicant[] applicants);\n\n    struct Applicant {\n        string name;\n        uint256 number; \n        string add;\n        string scheme_name; \n        uint256 marks_scored;\n        uint256 ward_number; \n        uint256 house_number; \n    }\n\n    Applicant[] public applicants;\n\n    function getApplicants () public  returns (Applicant[] memory ){\n        emit ApplicantRetrieved(applicants);\n        return applicants;\n    }\n\n    function getApplicantsLength() public view returns (uint256) {\n        return applicants.length;\n    }\n\n     function addApplicant (string memory _name, uint256 _number, string memory _add, string memory _scheme_name, uint256 _ward_number, uint256 _house_number, uint256 _marks_scored) public {\n        uint256 applicant_total_marks = _marks_scored;\n        Applicant memory newApplicant = Applicant(_name, _number, _add,  _scheme_name, applicant_total_marks, _ward_number, _house_number);\n        applicants.push(newApplicant);\n        sortApplicants();\n    }  \n\n    function sortApplicants() internal {\n        for (uint256 i = 0; i < applicants.length; i++) {\n            for (uint256 j = i + 1; j < applicants.length; j++) {\n                if (applicants[i].marks_scored < applicants[j].marks_scored) {\n                    Applicant memory temp = applicants[i];\n                    applicants[i] = applicants[j];\n                    applicants[j] = temp;\n                }\n            }\n        }\n    }\n\n    function calculateMarks(string[12] memory fields) public {\n        totalMarks = 0;\n        for (uint256 i = 0; i < fields.length; i++) {\n            marks[i] = evaluateField(fields[i]); \n            totalMarks += marks[i];\n            emit MarksCalculated(marks, totalMarks);\n        }\n    }\n\n    function getMarks() public view returns (uint256[12] memory, uint256) {\n        return (marks, totalMarks);\n    }\n\n    function evaluateField(\n        string memory field\n    ) internal pure returns (uint256) {\n        if (compareStrings(field, \"yes\")) {\n            return 20; \n        } else if (compareStrings(field, \"BPL\")) {\n            return 20;\n        } else if (compareStrings(field, \"public\")) {\n            return 20;\n        } else if (isInteger(field)) {\n            uint256 value = parseInt(field);\n            if (value >= 0 && value <= 10000) {\n                return 20; \n            }\n        }\n        return 0;\n    }\n\n    function compareStrings(\n        string memory a,\n        string memory b\n    ) internal pure returns (bool) {\n        return (keccak256(abi.encodePacked((a))) ==\n            keccak256(abi.encodePacked((b))));\n    }\n\n    function isInteger(string memory value) internal pure returns (bool) {\n        bytes memory strBytes = bytes(value);\n        for (uint256 i = 0; i < strBytes.length; i++) {\n            if ((uint8(strBytes[i]) < 48) || (uint8(strBytes[i]) > 57)) {\n                return false;\n            }\n        }\n        return true;\n    }\n\n    function parseInt(string memory value) internal pure returns (uint256) {\n        uint256 result = 0;\n        bytes memory strBytes = bytes(value);\n        for (uint256 i = 0; i < strBytes.length; i++) {\n            if ((uint8(strBytes[i]) >= 48) && (uint8(strBytes[i]) <= 57)) {\n                result = result * 10 + (uint8(strBytes[i]) - 48);\n            }\n        }\n        return result;\n    }\n}\n\n",
  "sourcePath": "C:\\Users\\kevin\\OneDrive\\Desktop\\projects\\main-project\\grant-block\\contracts\\Evaluation.sol",
  "compiler": {
    "name": "solc",
    "version": "0.8.13+commit.abaa5c0e.Emscripten.clang"
  },
  "schemaVersion": "3.4.16",
  "updatedAt": "2024-04-17T18:46:10.195Z",
  "networkType": "ethereum",
  "devdoc": {
    "kind": "dev",
    "methods": {},
    "version": 1
  },
  "userdoc": {
    "kind": "user",
    "methods": {},
    "version": 1
  }
}