{
  "contractName": "Evaluation",
  "abi": [
    {
      "anonymous": false,
      "inputs": [
        {
          "indexed": false,
          "internalType": "uint256[12]",
          "name": "marks",
          "type": "uint256[12]"
        },
        {
          "indexed": false,
          "internalType": "uint256",
          "name": "totalMarks",
          "type": "uint256"
        }
      ],
      "name": "MarksCalculated",
      "type": "event"
    },
    {
      "inputs": [
        {
          "internalType": "uint256",
          "name": "",
          "type": "uint256"
        }
      ],
      "name": "marks",
      "outputs": [
        {
          "internalType": "uint256",
          "name": "",
          "type": "uint256"
        }
      ],
      "stateMutability": "view",
      "type": "function",
      "constant": true
    },
    {
      "inputs": [],
      "name": "totalMarks",
      "outputs": [
        {
          "internalType": "uint256",
          "name": "",
          "type": "uint256"
        }
      ],
      "stateMutability": "view",
      "type": "function",
      "constant": true
    },
    {
      "inputs": [
        {
          "internalType": "string[12]",
          "name": "fields",
          "type": "string[12]"
        }
      ],
      "name": "calculateMarks",
      "outputs": [],
      "stateMutability": "nonpayable",
      "type": "function"
    },
    {
      "inputs": [],
      "name": "getMarks",
      "outputs": [
        {
          "internalType": "uint256[12]",
          "name": "",
          "type": "uint256[12]"
        },
        {
          "internalType": "uint256",
          "name": "",
          "type": "uint256"
        }
      ],
      "stateMutability": "view",
      "type": "function",
      "constant": true
    }
  ],
  "bytecode": "0x608060405234801561001057600080fd5b50610c66806100206000396000f3fe608060405234801561001057600080fd5b506004361061004c5760003560e01c80631f44f6e6146100515780632dd88e811461008157806366af77ca1461009d578063b780e507146100bb575b600080fd5b61006b60048036038101906100669190610589565b6100da565b60405161007891906105c5565b60405180910390f35b61009b600480360381019061009691906107fa565b6100f5565b005b6100a56101c3565b6040516100b291906105c5565b60405180910390f35b6100c36101c9565b6040516100d19291906108ee565b60405180910390f35b600081600c81106100ea57600080fd5b016000915090505481565b6000600c8190555060005b600c8110156101bf576101298282600c811061011f5761011e610919565b5b602002015161021e565b600082600c811061013d5761013c610919565b5b0181905550600081600c811061015657610155610919565b5b0154600c60008282546101699190610977565b925050819055507f88a13954554daf4385ac0d1bc0a95403aae69b599bfa2d7b2e007c5311c3f1396000600c546040516101a4929190610a91565b60405180910390a180806101b790610abc565b915050610100565b5050565b600c5481565b6101d161051c565b600080600c5481600c806020026040519081016040528092919082600c801561020f576020028201915b8154815260200190600101908083116101fb575b50505050509150915091509091565b600061025f826040518060400160405280600381526020017f7965730000000000000000000000000000000000000000000000000000000000815250610350565b1561026d576014905061034b565b6102ac826040518060400160405280600381526020017f42504c0000000000000000000000000000000000000000000000000000000000815250610350565b156102ba576014905061034b565b6102f9826040518060400160405280600681526020017f7075626c69630000000000000000000000000000000000000000000000000000815250610350565b15610307576014905061034b565b610310826103a9565b156103465760006103208361043f565b90506000811015801561033557506127108111155b1561034457601491505061034b565b505b600090505b919050565b6000816040516020016103639190610b7e565b604051602081830303815290604052805190602001208360405160200161038a9190610b7e565b6040516020818303038152906040528051906020012014905092915050565b60008082905060005b81518110156104335760308282815181106103d0576103cf610919565b5b602001015160f81c60f81b60f81c60ff161080610410575060398282815181106103fd576103fc610919565b5b602001015160f81c60f81b60f81c60ff16115b156104205760009250505061043a565b808061042b90610abc565b9150506103b2565b5060019150505b919050565b60008060009050600083905060005b815181101561051157603082828151811061046c5761046b610919565b5b602001015160f81c60f81b60f81c60ff16101580156104af5750603982828151811061049b5761049a610919565b5b602001015160f81c60f81b60f81c60ff1611155b156104fe5760308282815181106104c9576104c8610919565b5b602001015160f81c60f81b60f81c6104e19190610ba2565b60ff16600a846104f19190610bd6565b6104fb9190610977565b92505b808061050990610abc565b91505061044e565b508192505050919050565b604051806101800160405280600c90602082028036833780820191505090505090565b6000604051905090565b600080fd5b600080fd5b6000819050919050565b61056681610553565b811461057157600080fd5b50565b6000813590506105838161055d565b92915050565b60006020828403121561059f5761059e610549565b5b60006105ad84828501610574565b91505092915050565b6105bf81610553565b82525050565b60006020820190506105da60008301846105b6565b92915050565b600080fd5b6000601f19601f8301169050919050565b7f4e487b7100000000000000000000000000000000000000000000000000000000600052604160045260246000fd5b61062e826105e5565b810181811067ffffffffffffffff8211171561064d5761064c6105f6565b5b80604052505050565b600061066061053f565b905061066c8282610625565b919050565b600067ffffffffffffffff82111561068c5761068b6105f6565b5b602082029050919050565b600080fd5b600080fd5b600067ffffffffffffffff8211156106bc576106bb6105f6565b5b6106c5826105e5565b9050602081019050919050565b82818337600083830152505050565b60006106f46106ef846106a1565b610656565b9050828152602081018484840111156107105761070f61069c565b5b61071b8482856106d2565b509392505050565b600082601f830112610738576107376105e0565b5b81356107488482602086016106e1565b91505092915050565b600061076461075f84610671565b610656565b9050806020840283018581111561077e5761077d610697565b5b835b818110156107c557803567ffffffffffffffff8111156107a3576107a26105e0565b5b8086016107b08982610723565b85526020850194505050602081019050610780565b5050509392505050565b600082601f8301126107e4576107e36105e0565b5b600c6107f1848285610751565b91505092915050565b6000602082840312156108105761080f610549565b5b600082013567ffffffffffffffff81111561082e5761082d61054e565b5b61083a848285016107cf565b91505092915050565b6000600c9050919050565b600081905092915050565b6000819050919050565b61086c81610553565b82525050565b600061087e8383610863565b60208301905092915050565b6000602082019050919050565b6108a081610843565b6108aa818461084e565b92506108b582610859565b8060005b838110156108e65781516108cd8782610872565b96506108d88361088a565b9250506001810190506108b9565b505050505050565b60006101a0820190506109046000830185610897565b6109126101808301846105b6565b9392505050565b7f4e487b7100000000000000000000000000000000000000000000000000000000600052603260045260246000fd5b7f4e487b7100000000000000000000000000000000000000000000000000000000600052601160045260246000fd5b600061098282610553565b915061098d83610553565b9250827fffffffffffffffffffffffffffffffffffffffffffffffffffffffffffffffff038211156109c2576109c1610948565b5b828201905092915050565b6000600c9050919050565b6000819050919050565b60008160001c9050919050565b6000819050919050565b6000610a0c610a07836109e2565b6109ef565b9050919050565b6000610a1f82546109f9565b9050919050565b6000600182019050919050565b610a3c816109cd565b610a46818461084e565b9250610a51826109d8565b8060005b83811015610a8957610a6682610a13565b610a708782610872565b9650610a7b83610a26565b925050600181019050610a55565b505050505050565b60006101a082019050610aa76000830185610a33565b610ab56101808301846105b6565b9392505050565b6000610ac782610553565b91507fffffffffffffffffffffffffffffffffffffffffffffffffffffffffffffffff8203610af957610af8610948565b5b600182019050919050565b600081519050919050565b600081905092915050565b60005b83811015610b38578082015181840152602081019050610b1d565b83811115610b47576000848401525b50505050565b6000610b5882610b04565b610b628185610b0f565b9350610b72818560208601610b1a565b80840191505092915050565b6000610b8a8284610b4d565b915081905092915050565b600060ff82169050919050565b6000610bad82610b95565b9150610bb883610b95565b925082821015610bcb57610bca610948565b5b828203905092915050565b6000610be182610553565b9150610bec83610553565b9250817fffffffffffffffffffffffffffffffffffffffffffffffffffffffffffffffff0483118215151615610c2557610c24610948565b5b82820290509291505056fea26469706673582212203fc17dcfcda6a0f788d83a947130e51319ed2e77ad5ec7930208852e909faae364736f6c634300080d0033",
  "immutableReferences": {},
  "source": "// SPDX-License-Identifier: MIT\npragma solidity ^0.8.13;\n\ncontract Evaluation {\n    uint256[12] public marks; // Public array to store marks for the current evaluation\n    uint256 public totalMarks; // Public variable to store the total marks\n    event MarksCalculated(uint256[12] marks, uint256 totalMarks); // Event to record calculated marks\n\n    function calculateMarks(string[12] memory fields) public {\n        totalMarks = 0; // Reset totalMarks before calculating\n        for (uint256 i = 0; i < fields.length; i++) {\n            marks[i] = evaluateField(fields[i]); // Evaluate each field and assign marks accordingly\n            totalMarks += marks[i]; // Add each mark to the total\n            emit MarksCalculated(marks, totalMarks);\n        }\n    }\n\n    // Getter function to retrieve the calculated marks and total marks\n    function getMarks() public view returns (uint256[12] memory, uint256) {\n        return (marks, totalMarks);\n    }\n\n    // Function to evaluate a single field and assign marks based on its value\n    function evaluateField(\n        string memory field\n    ) internal pure returns (uint256) {\n        if (compareStrings(field, \"yes\")) {\n            return 20; // Assign 20 marks if the field is \"yes\"\n        } else if (compareStrings(field, \"BPL\")) {\n            return 20;\n        } else if (compareStrings(field, \"public\")) {\n            return 20;\n        } else if (isInteger(field)) {\n            uint256 value = parseInt(field);\n            if (value >= 0 && value <= 10000) {\n                return 20; // Assign marks equal to the integer value if it's between 0 and 100\n            }\n        }\n        // If the field doesn't match any condition, assign 0 marks\n        return 0;\n    }\n\n    // Function to compare two strings\n    function compareStrings(\n        string memory a,\n        string memory b\n    ) internal pure returns (bool) {\n        return (keccak256(abi.encodePacked((a))) ==\n            keccak256(abi.encodePacked((b))));\n    }\n\n    // Function to check if a string represents an integer\n    function isInteger(string memory value) internal pure returns (bool) {\n        bytes memory strBytes = bytes(value);\n        for (uint256 i = 0; i < strBytes.length; i++) {\n            if ((uint8(strBytes[i]) < 48) || (uint8(strBytes[i]) > 57)) {\n                return false;\n            }\n        }\n        return true;\n    }\n\n    // Function to parse an integer from a string\n    function parseInt(string memory value) internal pure returns (uint256) {\n        uint256 result = 0;\n        bytes memory strBytes = bytes(value);\n        for (uint256 i = 0; i < strBytes.length; i++) {\n            if ((uint8(strBytes[i]) >= 48) && (uint8(strBytes[i]) <= 57)) {\n                result = result * 10 + (uint8(strBytes[i]) - 48);\n            }\n        }\n        return result;\n    }\n}\n",
  "sourcePath": "C:\\Users\\kevin\\OneDrive\\Desktop\\projects\\main-project\\grant-block\\contracts\\Evaluation.sol",
  "compiler": {
    "name": "solc",
    "version": "0.8.13+commit.abaa5c0e.Emscripten.clang"
  },
  "schemaVersion": "3.4.16",
  "updatedAt": "2024-04-14T16:35:33.783Z",
  "networkType": "ethereum",
  "devdoc": {
    "kind": "dev",
    "methods": {},
    "version": 1
  },
  "userdoc": {
    "kind": "user",
    "methods": {},
    "version": 1
  }
}